{
  "contractName": "DappToken",
  "abi": [
    {
      "constant": true,
      "inputs": [],
      "name": "totalSupply",
      "outputs": [
        {
          "internalType": "uint256",
          "name": "",
          "type": "uint256"
        }
      ],
      "payable": false,
      "stateMutability": "view",
      "type": "function"
    },
    {
      "constant": false,
      "inputs": [],
      "name": "dappToken",
      "outputs": [],
      "payable": false,
      "stateMutability": "nonpayable",
      "type": "function"
    }
  ],
  "bytecode": "0x6080604052348015600f57600080fd5b5060a28061001e6000396000f3fe6080604052348015600f57600080fd5b506004361060325760003560e01c806318160ddd1460375780635eb186f8146053575b600080fd5b603d605b565b6040518082815260200191505060405180910390f35b60596061565b005b60005481565b620f424060008190555056fea265627a7a7231582016b106a39b9514404fee559ca736d4e57157e4ca9ec02a5738fe99b21e1237b264736f6c63430005100032",
  "source": "//SPDX-License-Identifier: MIT\r\npragma solidity >= 0.5.0 <0.9.0;\r\n\r\ncontract DappToken {\r\n\t//constructor\r\n\t//set the total number of tokens\r\n\t//read the total number of tokens\r\n\r\n\tuint public totalSupply;\r\n\r\n\tfunction dappToken() public {\r\n\t\ttotalSupply = 1000000;\r\n\t}\r\n}",
  "sourcePath": "C:/Users/Sahar Mirkamrani/Desktop/token_sale/contracts/DappToken.sol",
  "compiler": {
    "name": "solc",
    "version": "0.5.16+commit.9c3226ce.Emscripten.clang"
  },
  "schemaVersion": "3.3.4",
  "updatedAt": "2022-05-03T10:50:54.378Z",
  "networkType": "ethereum",
  "devdoc": {
    "methods": {}
  },
  "userdoc": {
    "methods": {}
  }
}